{
  "_format": "hh-sol-artifact-1",
  "contractName": "CrowdFunding",
  "sourceName": "contracts/CrowdFunding.sol",
  "abi": [
    {
      "inputs": [
        {
          "internalType": "uint256",
          "name": "",
          "type": "uint256"
        }
      ],
      "name": "campaigns",
      "outputs": [
        {
          "internalType": "address",
          "name": "owner",
          "type": "address"
        },
        {
          "internalType": "string",
          "name": "title",
          "type": "string"
        },
        {
          "internalType": "string",
          "name": "description",
          "type": "string"
        },
        {
          "internalType": "uint256",
          "name": "target",
          "type": "uint256"
        },
        {
          "internalType": "uint256",
          "name": "amountCollected",
          "type": "uint256"
        },
        {
          "internalType": "string",
          "name": "image",
          "type": "string"
        }
      ],
      "stateMutability": "view",
      "type": "function"
    },
    {
      "inputs": [
        {
          "internalType": "address",
          "name": "_owner",
          "type": "address"
        },
        {
          "internalType": "string",
          "name": "_title",
          "type": "string"
        },
        {
          "internalType": "string",
          "name": "_description",
          "type": "string"
        },
        {
          "internalType": "uint256",
          "name": "_target",
          "type": "uint256"
        },
        {
          "internalType": "string",
          "name": "_image",
          "type": "string"
        }
      ],
      "name": "createCampaign",
      "outputs": [
        {
          "internalType": "uint256",
          "name": "",
          "type": "uint256"
        }
      ],
      "stateMutability": "nonpayable",
      "type": "function"
    },
    {
      "inputs": [
        {
          "internalType": "uint256",
          "name": "_id",
          "type": "uint256"
        }
      ],
      "name": "donateToCampaign",
      "outputs": [],
      "stateMutability": "payable",
      "type": "function"
    },
    {
      "inputs": [],
      "name": "getCampaigns",
      "outputs": [
        {
          "components": [
            {
              "internalType": "address",
              "name": "owner",
              "type": "address"
            },
            {
              "internalType": "string",
              "name": "title",
              "type": "string"
            },
            {
              "internalType": "string",
              "name": "description",
              "type": "string"
            },
            {
              "internalType": "uint256",
              "name": "target",
              "type": "uint256"
            },
            {
              "internalType": "uint256",
              "name": "amountCollected",
              "type": "uint256"
            },
            {
              "internalType": "string",
              "name": "image",
              "type": "string"
            },
            {
              "internalType": "address[]",
              "name": "donators",
              "type": "address[]"
            },
            {
              "internalType": "uint256[]",
              "name": "donations",
              "type": "uint256[]"
            }
          ],
          "internalType": "struct CrowdFunding.Campaign[]",
          "name": "",
          "type": "tuple[]"
        }
      ],
      "stateMutability": "view",
      "type": "function"
    },
    {
      "inputs": [
        {
          "internalType": "uint256",
          "name": "_id",
          "type": "uint256"
        }
      ],
      "name": "getDonators",
      "outputs": [
        {
          "internalType": "address[]",
          "name": "",
          "type": "address[]"
        },
        {
          "internalType": "uint256[]",
          "name": "",
          "type": "uint256[]"
        }
      ],
      "stateMutability": "view",
      "type": "function"
    },
    {
      "inputs": [],
      "name": "numberOfCampaigns",
      "outputs": [
        {
          "internalType": "uint256",
          "name": "",
          "type": "uint256"
        }
      ],
      "stateMutability": "view",
      "type": "function"
    }
  ],
  "bytecode": "0x6080604052600060015534801561001557600080fd5b50610ecc806100256000396000f3fe6080604052600436106100555760003560e01c806307ca140d1461005a5780630fa91fa9146100835780631227d335146100b1578063141961bc146100d157806342a4fda814610103578063a6b0363314610118575b600080fd5b34801561006657600080fd5b5061007060015481565b6040519081526020015b60405180910390f35b34801561008f57600080fd5b506100a361009e3660046108d2565b61013a565b60405161007a9291906108eb565b3480156100bd57600080fd5b506100706100cc366004610a12565b610209565b3480156100dd57600080fd5b506100f16100ec3660046108d2565b61029d565b60405161007a96959493929190610b09565b6101166101113660046108d2565b610474565b005b34801561012457600080fd5b5061012d610536565b60405161007a9190610be0565b600081815260208181526040918290206006810180548451818502810185019095528085526060948594929360070192909184918301828280156101a757602002820191906000526020600020905b81546001600160a01b03168152600190910190602001808311610189575b50505050509150808054806020026020016040519081016040528092919081815260200182805480156101f957602002820191906000526020600020905b8154815260200190600101908083116101e5575b5050505050905091509150915091565b60018054600090815260208190526040812080546001600160a01b0319166001600160a01b038916178155909181016102428782610d65565b50600281016102518682610d65565b5060038101849055600581016102678482610d65565b50600060048201819055600180549161027f83610e3b565b9190505550600180546102929190610e54565b979650505050505050565b600060208190529081526040902080546001820180546001600160a01b0390921692916102c990610ce2565b80601f01602080910402602001604051908101604052809291908181526020018280546102f590610ce2565b80156103425780601f1061031757610100808354040283529160200191610342565b820191906000526020600020905b81548152906001019060200180831161032557829003601f168201915b50505050509080600201805461035790610ce2565b80601f016020809104026020016040519081016040528092919081815260200182805461038390610ce2565b80156103d05780601f106103a5576101008083540402835291602001916103d0565b820191906000526020600020905b8154815290600101906020018083116103b357829003601f168201915b5050505050908060030154908060040154908060050180546103f190610ce2565b80601f016020809104026020016040519081016040528092919081815260200182805461041d90610ce2565b801561046a5780601f1061043f5761010080835404028352916020019161046a565b820191906000526020600020905b81548152906001019060200180831161044d57829003601f168201915b5050505050905086565b600081815260208181526040808320600681018054600180820183559186528486200180546001600160a01b0319163317905560078201805491820181558552928420349301839055805491519293909290916001600160a01b03169084908381818185875af1925050503d806000811461050b576040519150601f19603f3d011682016040523d82523d6000602084013e610510565b606091505b5050905080156105305782826004015461052a9190610e6d565b60048301555b50505050565b6060600060015467ffffffffffffffff8111156105555761055561096f565b6040519080825280602002602001820160405280156105d757816020015b6105c460405180610100016040528060006001600160a01b03168152602001606081526020016060815260200160008152602001600081526020016060815260200160608152602001606081525090565b8152602001906001900390816105735790505b50905060005b6001548110156108cc57600081815260208181526040918290208251610100810190935280546001600160a01b031683526001810180549193928492908401919061062790610ce2565b80601f016020809104026020016040519081016040528092919081815260200182805461065390610ce2565b80156106a05780601f10610675576101008083540402835291602001916106a0565b820191906000526020600020905b81548152906001019060200180831161068357829003601f168201915b505050505081526020016002820180546106b990610ce2565b80601f01602080910402602001604051908101604052809291908181526020018280546106e590610ce2565b80156107325780601f1061070757610100808354040283529160200191610732565b820191906000526020600020905b81548152906001019060200180831161071557829003601f168201915b50505050508152602001600382015481526020016004820154815260200160058201805461075f90610ce2565b80601f016020809104026020016040519081016040528092919081815260200182805461078b90610ce2565b80156107d85780601f106107ad576101008083540402835291602001916107d8565b820191906000526020600020905b8154815290600101906020018083116107bb57829003601f168201915b505050505081526020016006820180548060200260200160405190810160405280929190818152602001828054801561083a57602002820191906000526020600020905b81546001600160a01b0316815260019091019060200180831161081c575b505050505081526020016007820180548060200260200160405190810160405280929190818152602001828054801561089257602002820191906000526020600020905b81548152602001906001019080831161087e575b5050505050815250508383815181106108ad576108ad610e80565b60200260200101819052505080806108c490610e3b565b9150506105dd565b50919050565b6000602082840312156108e457600080fd5b5035919050565b604080825283519082018190526000906020906060840190828701845b8281101561092d5781516001600160a01b031684529284019290840190600101610908565b5050508381038285015284518082528583019183019060005b8181101561096257835183529284019291840191600101610946565b5090979650505050505050565b634e487b7160e01b600052604160045260246000fd5b600082601f83011261099657600080fd5b813567ffffffffffffffff808211156109b1576109b161096f565b604051601f8301601f19908116603f011681019082821181831017156109d9576109d961096f565b816040528381528660208588010111156109f257600080fd5b836020870160208301376000602085830101528094505050505092915050565b600080600080600060a08688031215610a2a57600080fd5b85356001600160a01b0381168114610a4157600080fd5b9450602086013567ffffffffffffffff80821115610a5e57600080fd5b610a6a89838a01610985565b95506040880135915080821115610a8057600080fd5b610a8c89838a01610985565b9450606088013593506080880135915080821115610aa957600080fd5b50610ab688828901610985565b9150509295509295909350565b6000815180845260005b81811015610ae957602081850181015186830182015201610acd565b506000602082860101526020601f19601f83011685010191505092915050565b6001600160a01b038716815260c060208201819052600090610b2d90830188610ac3565b8281036040840152610b3f8188610ac3565b905085606084015284608084015282810360a0840152610b5f8185610ac3565b9998505050505050505050565b600081518084526020808501945080840160005b83811015610ba55781516001600160a01b031687529582019590820190600101610b80565b509495945050505050565b600081518084526020808501945080840160005b83811015610ba557815187529582019590820190600101610bc4565b60006020808301818452808551808352604092508286019150828160051b87010184880160005b83811015610cd457888303603f19018552815180516001600160a01b0316845261010088820151818a870152610c3f82870182610ac3565b9150508782015185820389870152610c578282610ac3565b9150506060808301518187015250608080830151818701525060a08083015186830382880152610c878382610ac3565b9250505060c08083015186830382880152610ca28382610b6c565b9250505060e08083015192508582038187015250610cc08183610bb0565b968901969450505090860190600101610c07565b509098975050505050505050565b600181811c90821680610cf657607f821691505b6020821081036108cc57634e487b7160e01b600052602260045260246000fd5b601f821115610d6057600081815260208120601f850160051c81016020861015610d3d5750805b601f850160051c820191505b81811015610d5c57828155600101610d49565b5050505b505050565b815167ffffffffffffffff811115610d7f57610d7f61096f565b610d9381610d8d8454610ce2565b84610d16565b602080601f831160018114610dc85760008415610db05750858301515b600019600386901b1c1916600185901b178555610d5c565b600085815260208120601f198616915b82811015610df757888601518255948401946001909101908401610dd8565b5085821015610e155787850151600019600388901b60f8161c191681555b5050505050600190811b01905550565b634e487b7160e01b600052601160045260246000fd5b600060018201610e4d57610e4d610e25565b5060010190565b81810381811115610e6757610e67610e25565b92915050565b80820180821115610e6757610e67610e25565b634e487b7160e01b600052603260045260246000fdfea2646970667358221220c876470f3756fe30944c3685326c3fc14a2020606d4421a5eca64bf7eb300bc664736f6c63430008110033",
  "linkReferences": {},
  "deployedLinkReferences": {}
}